{
  "_format": "hh-sol-artifact-1",
  "contractName": "SimpleCarbonCredit",
  "sourceName": "contracts/SimpleCarbonCredit.sol",
  "abi": [
    {
      "inputs": [],
      "name": "CreditDoesntExist",
      "type": "error"
    },
    {
      "inputs": [],
      "name": "CreditNotForSale",
      "type": "error"
    },
    {
      "inputs": [],
      "name": "OnlyOwnerCanRemove",
      "type": "error"
    },
    {
      "inputs": [],
      "name": "OnlyOwnerCanSell",
      "type": "error"
    },
    {
      "inputs": [],
      "name": "PriceNotMet",
      "type": "error"
    },
    {
      "inputs": [
        {
          "internalType": "uint256",
          "name": "creditId",
          "type": "uint256"
        }
      ],
      "name": "Expire",
      "outputs": [],
      "stateMutability": "nonpayable",
      "type": "function"
    },
    {
      "inputs": [
        {
          "internalType": "uint256",
          "name": "creditId",
          "type": "uint256"
        }
      ],
      "name": "buyCredit",
      "outputs": [],
      "stateMutability": "payable",
      "type": "function"
    },
    {
      "inputs": [
        {
          "internalType": "uint256",
          "name": "",
          "type": "uint256"
        }
      ],
      "name": "credits",
      "outputs": [
        {
          "internalType": "uint256",
          "name": "amount",
          "type": "uint256"
        },
        {
          "internalType": "address",
          "name": "owner",
          "type": "address"
        },
        {
          "internalType": "bool",
          "name": "expired",
          "type": "bool"
        },
        {
          "internalType": "uint256",
          "name": "price",
          "type": "uint256"
        },
        {
          "internalType": "bool",
          "name": "forSale",
          "type": "bool"
        }
      ],
      "stateMutability": "view",
      "type": "function"
    },
    {
      "inputs": [
        {
          "internalType": "uint256",
          "name": "amount",
          "type": "uint256"
        },
        {
          "internalType": "uint256",
          "name": "price",
          "type": "uint256"
        }
      ],
      "name": "generateCredit",
      "outputs": [],
      "stateMutability": "nonpayable",
      "type": "function"
    },
    {
      "inputs": [
        {
          "internalType": "uint256",
          "name": "creditId",
          "type": "uint256"
        }
      ],
      "name": "getOwner",
      "outputs": [
        {
          "internalType": "address",
          "name": "",
          "type": "address"
        }
      ],
      "stateMutability": "view",
      "type": "function"
    },
    {
      "inputs": [
        {
          "internalType": "uint256",
          "name": "creditId",
          "type": "uint256"
        }
      ],
      "name": "isExpired",
      "outputs": [
        {
          "internalType": "bool",
          "name": "",
          "type": "bool"
        }
      ],
      "stateMutability": "view",
      "type": "function"
    },
    {
      "inputs": [],
      "name": "nextCreditId",
      "outputs": [
        {
          "internalType": "uint256",
          "name": "",
          "type": "uint256"
        }
      ],
      "stateMutability": "view",
      "type": "function"
    },
    {
      "inputs": [
        {
          "internalType": "uint256",
          "name": "creditId",
          "type": "uint256"
        }
      ],
      "name": "removeFromSale",
      "outputs": [],
      "stateMutability": "nonpayable",
      "type": "function"
    },
    {
      "inputs": [
        {
          "internalType": "uint256",
          "name": "creditId",
          "type": "uint256"
        },
        {
          "internalType": "uint256",
          "name": "price",
          "type": "uint256"
        }
      ],
      "name": "sellCredit",
      "outputs": [],
      "stateMutability": "nonpayable",
      "type": "function"
    }
  ],
  "bytecode": "0x6080604052348015600f57600080fd5b50610a3d8061001f6000396000f3fe6080604052600436106100865760003560e01c8063a33fd53b11610059578063a33fd53b1461013a578063c41a360a14610163578063ca850692146101a0578063d9548e53146101c9578063fc00b7981461020657610086565b8063036a1c221461008b5780631361a3b6146100cc5780633047456f146100f55780637211dde41461011e575b600080fd5b34801561009757600080fd5b506100b260048036038101906100ad9190610814565b610231565b6040516100c39594939291906108ac565b60405180910390f35b3480156100d857600080fd5b506100f360048036038101906100ee9190610814565b6102a1565b005b34801561010157600080fd5b5061011c600480360381019061011791906108ff565b610361565b005b61013860048036038101906101339190610814565b610472565b005b34801561014657600080fd5b50610161600480360381019061015c9190610814565b6105e3565b005b34801561016f57600080fd5b5061018a60048036038101906101859190610814565b610614565b604051610197919061093f565b60405180910390f35b3480156101ac57600080fd5b506101c760048036038101906101c291906108ff565b610653565b005b3480156101d557600080fd5b506101f060048036038101906101eb9190610814565b6107a7565b6040516101fd919061095a565b60405180910390f35b34801561021257600080fd5b5061021b6107d3565b6040516102289190610975565b60405180910390f35b60006020528060005260406000206000915090508060000154908060010160009054906101000a900473ffffffffffffffffffffffffffffffffffffffff16908060010160149054906101000a900460ff16908060020154908060030160009054906101000a900460ff16905085565b600080600083815260200190815260200160002090508060010160009054906101000a900473ffffffffffffffffffffffffffffffffffffffff1673ffffffffffffffffffffffffffffffffffffffff163373ffffffffffffffffffffffffffffffffffffffff1614610340576040517f8a715f9900000000000000000000000000000000000000000000000000000000815260040160405180910390fd5b60008160030160006101000a81548160ff0219169083151502179055505050565b6040518060a001604052808381526020013373ffffffffffffffffffffffffffffffffffffffff1681526020016000151581526020018281526020016000151581525060008060015481526020019081526020016000206000820151816000015560208201518160010160006101000a81548173ffffffffffffffffffffffffffffffffffffffff021916908373ffffffffffffffffffffffffffffffffffffffff16021790555060408201518160010160146101000a81548160ff0219169083151502179055506060820151816002015560808201518160030160006101000a81548160ff02191690831515021790555090505060016000815480929190610469906109bf565b91905055505050565b60008060008381526020019081526020016000209050600015158160030160009054906101000a900460ff161515036104d7576040517f648b466f00000000000000000000000000000000000000000000000000000000815260040160405180910390fd5b80600201543414610514576040517fa2c2d5c600000000000000000000000000000000000000000000000000000000815260040160405180910390fd5b8060010160009054906101000a900473ffffffffffffffffffffffffffffffffffffffff1673ffffffffffffffffffffffffffffffffffffffff166108fc349081150290604051600060405180830381858888f1935050505015801561057e573d6000803e3d6000fd5b50338160010160006101000a81548173ffffffffffffffffffffffffffffffffffffffff021916908373ffffffffffffffffffffffffffffffffffffffff16021790555060008160030160006101000a81548160ff0219169083151502179055505050565b600160008083815260200190815260200160002060010160146101000a81548160ff02191690831515021790555050565b600080600083815260200190815260200160002060010160009054906101000a900473ffffffffffffffffffffffffffffffffffffffff169050919050565b60008060008481526020019081526020016000209050600073ffffffffffffffffffffffffffffffffffffffff168160010160009054906101000a900473ffffffffffffffffffffffffffffffffffffffff1673ffffffffffffffffffffffffffffffffffffffff16036106f3576040517f854f4ad100000000000000000000000000000000000000000000000000000000815260040160405180910390fd5b8060010160009054906101000a900473ffffffffffffffffffffffffffffffffffffffff1673ffffffffffffffffffffffffffffffffffffffff163373ffffffffffffffffffffffffffffffffffffffff161461077c576040517f4400708d00000000000000000000000000000000000000000000000000000000815260040160405180910390fd5b81816002018190555060018160030160006101000a81548160ff021916908315150217905550505050565b600080600083815260200190815260200160002060010160149054906101000a900460ff169050919050565b60015481565b600080fd5b6000819050919050565b6107f1816107de565b81146107fc57600080fd5b50565b60008135905061080e816107e8565b92915050565b60006020828403121561082a576108296107d9565b5b6000610838848285016107ff565b91505092915050565b61084a816107de565b82525050565b600073ffffffffffffffffffffffffffffffffffffffff82169050919050565b600061087b82610850565b9050919050565b61088b81610870565b82525050565b60008115159050919050565b6108a681610891565b82525050565b600060a0820190506108c16000830188610841565b6108ce6020830187610882565b6108db604083018661089d565b6108e86060830185610841565b6108f5608083018461089d565b9695505050505050565b60008060408385031215610916576109156107d9565b5b6000610924858286016107ff565b9250506020610935858286016107ff565b9150509250929050565b60006020820190506109546000830184610882565b92915050565b600060208201905061096f600083018461089d565b92915050565b600060208201905061098a6000830184610841565b92915050565b7f4e487b7100000000000000000000000000000000000000000000000000000000600052601160045260246000fd5b60006109ca826107de565b91507fffffffffffffffffffffffffffffffffffffffffffffffffffffffffffffffff82036109fc576109fb610990565b5b60018201905091905056fea2646970667358221220efdb01666315b5a620bdfaa692cc3cec2f1792303a0004af5f7b12f52ad5eb1564736f6c634300081b0033",
  "linkReferences": {},
  "deployedLinkReferences": {}
}