{
  "_format": "hh-sol-artifact-1",
  "contractName": "SimpleCarbonCredit",
  "sourceName": "contracts/SimpleCarbonCredit.sol",
  "abi": [
    {
      "inputs": [],
      "name": "CreditDoesntExist",
      "type": "error"
    },
    {
      "inputs": [],
      "name": "CreditNotForSale",
      "type": "error"
    },
    {
      "inputs": [],
      "name": "OnlyOwnerCanRemove",
      "type": "error"
    },
    {
      "inputs": [],
      "name": "OnlyOwnerCanSell",
      "type": "error"
    },
    {
      "inputs": [],
      "name": "PriceNotMet",
      "type": "error"
    },
    {
      "inputs": [
        {
          "internalType": "uint256",
          "name": "creditId",
          "type": "uint256"
        }
      ],
      "name": "Expire",
      "outputs": [],
      "stateMutability": "nonpayable",
      "type": "function"
    },
    {
      "inputs": [
        {
          "internalType": "uint256",
          "name": "creditId",
          "type": "uint256"
        }
      ],
      "name": "buyCredit",
      "outputs": [],
      "stateMutability": "payable",
      "type": "function"
    },
    {
      "inputs": [
        {
          "internalType": "uint256",
          "name": "",
          "type": "uint256"
        }
      ],
      "name": "credits",
      "outputs": [
        {
          "internalType": "uint256",
          "name": "amount",
          "type": "uint256"
        },
        {
          "internalType": "address",
          "name": "owner",
          "type": "address"
        },
        {
          "internalType": "bool",
          "name": "expired",
          "type": "bool"
        },
        {
          "internalType": "uint256",
          "name": "price",
          "type": "uint256"
        },
        {
          "internalType": "bool",
          "name": "forSale",
          "type": "bool"
        }
      ],
      "stateMutability": "view",
      "type": "function"
    },
    {
      "inputs": [
        {
          "internalType": "uint256",
          "name": "amount",
          "type": "uint256"
        },
        {
          "internalType": "uint256",
          "name": "price",
          "type": "uint256"
        }
      ],
      "name": "generateCredit",
      "outputs": [],
      "stateMutability": "nonpayable",
      "type": "function"
    },
    {
      "inputs": [],
      "name": "getNextCreditId",
      "outputs": [
        {
          "internalType": "uint256",
          "name": "",
          "type": "uint256"
        }
      ],
      "stateMutability": "view",
      "type": "function"
    },
    {
      "inputs": [
        {
          "internalType": "uint256",
          "name": "creditId",
          "type": "uint256"
        }
      ],
      "name": "getOwner",
      "outputs": [
        {
          "internalType": "address",
          "name": "",
          "type": "address"
        }
      ],
      "stateMutability": "view",
      "type": "function"
    },
    {
      "inputs": [
        {
          "internalType": "uint256",
          "name": "creditId",
          "type": "uint256"
        }
      ],
      "name": "getPrice",
      "outputs": [
        {
          "internalType": "uint256",
          "name": "",
          "type": "uint256"
        }
      ],
      "stateMutability": "view",
      "type": "function"
    },
    {
      "inputs": [
        {
          "internalType": "uint256",
          "name": "creditId",
          "type": "uint256"
        }
      ],
      "name": "isExpired",
      "outputs": [
        {
          "internalType": "bool",
          "name": "",
          "type": "bool"
        }
      ],
      "stateMutability": "view",
      "type": "function"
    },
    {
      "inputs": [
        {
          "internalType": "uint256",
          "name": "creditId",
          "type": "uint256"
        }
      ],
      "name": "removeFromSale",
      "outputs": [],
      "stateMutability": "nonpayable",
      "type": "function"
    },
    {
      "inputs": [
        {
          "internalType": "uint256",
          "name": "creditId",
          "type": "uint256"
        },
        {
          "internalType": "uint256",
          "name": "price",
          "type": "uint256"
        }
      ],
      "name": "sellCredit",
      "outputs": [],
      "stateMutability": "nonpayable",
      "type": "function"
    }
  ],
  "bytecode": "0x6080604052348015600f57600080fd5b50610aa88061001f6000396000f3fe6080604052600436106100915760003560e01c8063c41a360a11610059578063c41a360a1461016e578063ca850692146101ab578063d9548e53146101d4578063e757223014610211578063f53831751461024e57610091565b8063036a1c22146100965780631361a3b6146100d75780633047456f146101005780637211dde414610129578063a33fd53b14610145575b600080fd5b3480156100a257600080fd5b506100bd60048036038101906100b8919061087f565b610279565b6040516100ce959493929190610917565b60405180910390f35b3480156100e357600080fd5b506100fe60048036038101906100f9919061087f565b6102e9565b005b34801561010c57600080fd5b506101276004803603810190610122919061096a565b6103a9565b005b610143600480360381019061013e919061087f565b6104ba565b005b34801561015157600080fd5b5061016c6004803603810190610167919061087f565b61062b565b005b34801561017a57600080fd5b506101956004803603810190610190919061087f565b61065c565b6040516101a291906109aa565b60405180910390f35b3480156101b757600080fd5b506101d260048036038101906101cd919061096a565b61069b565b005b3480156101e057600080fd5b506101fb60048036038101906101f6919061087f565b6107ef565b60405161020891906109c5565b60405180910390f35b34801561021d57600080fd5b506102386004803603810190610233919061087f565b61081b565b60405161024591906109e0565b60405180910390f35b34801561025a57600080fd5b5061026361083a565b60405161027091906109e0565b60405180910390f35b60006020528060005260406000206000915090508060000154908060010160009054906101000a900473ffffffffffffffffffffffffffffffffffffffff16908060010160149054906101000a900460ff16908060020154908060030160009054906101000a900460ff16905085565b600080600083815260200190815260200160002090508060010160009054906101000a900473ffffffffffffffffffffffffffffffffffffffff1673ffffffffffffffffffffffffffffffffffffffff163373ffffffffffffffffffffffffffffffffffffffff1614610388576040517f8a715f9900000000000000000000000000000000000000000000000000000000815260040160405180910390fd5b60008160030160006101000a81548160ff0219169083151502179055505050565b6040518060a001604052808381526020013373ffffffffffffffffffffffffffffffffffffffff1681526020016000151581526020018281526020016001151581525060008060015481526020019081526020016000206000820151816000015560208201518160010160006101000a81548173ffffffffffffffffffffffffffffffffffffffff021916908373ffffffffffffffffffffffffffffffffffffffff16021790555060408201518160010160146101000a81548160ff0219169083151502179055506060820151816002015560808201518160030160006101000a81548160ff021916908315150217905550905050600160008154809291906104b190610a2a565b91905055505050565b60008060008381526020019081526020016000209050600015158160030160009054906101000a900460ff1615150361051f576040517f648b466f00000000000000000000000000000000000000000000000000000000815260040160405180910390fd5b8060020154341461055c576040517fa2c2d5c600000000000000000000000000000000000000000000000000000000815260040160405180910390fd5b8060010160009054906101000a900473ffffffffffffffffffffffffffffffffffffffff1673ffffffffffffffffffffffffffffffffffffffff166108fc349081150290604051600060405180830381858888f193505050501580156105c6573d6000803e3d6000fd5b50338160010160006101000a81548173ffffffffffffffffffffffffffffffffffffffff021916908373ffffffffffffffffffffffffffffffffffffffff16021790555060008160030160006101000a81548160ff0219169083151502179055505050565b600160008083815260200190815260200160002060010160146101000a81548160ff02191690831515021790555050565b600080600083815260200190815260200160002060010160009054906101000a900473ffffffffffffffffffffffffffffffffffffffff169050919050565b60008060008481526020019081526020016000209050600073ffffffffffffffffffffffffffffffffffffffff168160010160009054906101000a900473ffffffffffffffffffffffffffffffffffffffff1673ffffffffffffffffffffffffffffffffffffffff160361073b576040517f854f4ad100000000000000000000000000000000000000000000000000000000815260040160405180910390fd5b8060010160009054906101000a900473ffffffffffffffffffffffffffffffffffffffff1673ffffffffffffffffffffffffffffffffffffffff163373ffffffffffffffffffffffffffffffffffffffff16146107c4576040517f4400708d00000000000000000000000000000000000000000000000000000000815260040160405180910390fd5b81816002018190555060018160030160006101000a81548160ff021916908315150217905550505050565b600080600083815260200190815260200160002060010160149054906101000a900460ff169050919050565b6000806000838152602001908152602001600020600201549050919050565b6000600154905090565b600080fd5b6000819050919050565b61085c81610849565b811461086757600080fd5b50565b60008135905061087981610853565b92915050565b60006020828403121561089557610894610844565b5b60006108a38482850161086a565b91505092915050565b6108b581610849565b82525050565b600073ffffffffffffffffffffffffffffffffffffffff82169050919050565b60006108e6826108bb565b9050919050565b6108f6816108db565b82525050565b60008115159050919050565b610911816108fc565b82525050565b600060a08201905061092c60008301886108ac565b61093960208301876108ed565b6109466040830186610908565b61095360608301856108ac565b6109606080830184610908565b9695505050505050565b6000806040838503121561098157610980610844565b5b600061098f8582860161086a565b92505060206109a08582860161086a565b9150509250929050565b60006020820190506109bf60008301846108ed565b92915050565b60006020820190506109da6000830184610908565b92915050565b60006020820190506109f560008301846108ac565b92915050565b7f4e487b7100000000000000000000000000000000000000000000000000000000600052601160045260246000fd5b6000610a3582610849565b91507fffffffffffffffffffffffffffffffffffffffffffffffffffffffffffffffff8203610a6757610a666109fb565b5b60018201905091905056fea26469706673582212209208e66fd8eb6e1396c85012b1a14825724a833e6fd528698a70f9d49a691ef964736f6c634300081b0033",
  "linkReferences": {},
  "deployedLinkReferences": {}
}