{
  "_format": "hh-sol-artifact-1",
  "contractName": "SimpleCarbonCredit",
  "sourceName": "contracts/SimpleCarbonCredit.sol",
  "abi": [
    {
      "inputs": [],
      "name": "CreditDoesntExist",
      "type": "error"
    },
    {
      "inputs": [],
      "name": "CreditNotForSale",
      "type": "error"
    },
    {
      "inputs": [],
      "name": "OnlyCreatorCanExpire",
      "type": "error"
    },
    {
      "inputs": [],
      "name": "OnlyOwnerCanRemove",
      "type": "error"
    },
    {
      "inputs": [],
      "name": "OnlyOwnerCanSell",
      "type": "error"
    },
    {
      "inputs": [],
      "name": "PriceNotMet",
      "type": "error"
    },
    {
      "inputs": [
        {
          "internalType": "uint256",
          "name": "creditId",
          "type": "uint256"
        }
      ],
      "name": "Expire",
      "outputs": [],
      "stateMutability": "nonpayable",
      "type": "function"
    },
    {
      "inputs": [
        {
          "internalType": "uint256",
          "name": "creditId",
          "type": "uint256"
        }
      ],
      "name": "buyCredit",
      "outputs": [],
      "stateMutability": "payable",
      "type": "function"
    },
    {
      "inputs": [
        {
          "internalType": "uint256",
          "name": "",
          "type": "uint256"
        }
      ],
      "name": "credits",
      "outputs": [
        {
          "internalType": "uint256",
          "name": "amount",
          "type": "uint256"
        },
        {
          "internalType": "address",
          "name": "creator",
          "type": "address"
        },
        {
          "internalType": "address",
          "name": "owner",
          "type": "address"
        },
        {
          "internalType": "bool",
          "name": "expired",
          "type": "bool"
        },
        {
          "internalType": "uint256",
          "name": "price",
          "type": "uint256"
        },
        {
          "internalType": "bool",
          "name": "forSale",
          "type": "bool"
        }
      ],
      "stateMutability": "view",
      "type": "function"
    },
    {
      "inputs": [
        {
          "internalType": "uint256",
          "name": "amount",
          "type": "uint256"
        },
        {
          "internalType": "uint256",
          "name": "price",
          "type": "uint256"
        }
      ],
      "name": "generateCredit",
      "outputs": [],
      "stateMutability": "nonpayable",
      "type": "function"
    },
    {
      "inputs": [
        {
          "internalType": "uint256",
          "name": "creditId",
          "type": "uint256"
        }
      ],
      "name": "getCreator",
      "outputs": [
        {
          "internalType": "address",
          "name": "",
          "type": "address"
        }
      ],
      "stateMutability": "view",
      "type": "function"
    },
    {
      "inputs": [],
      "name": "getNextCreditId",
      "outputs": [
        {
          "internalType": "uint256",
          "name": "",
          "type": "uint256"
        }
      ],
      "stateMutability": "view",
      "type": "function"
    },
    {
      "inputs": [
        {
          "internalType": "uint256",
          "name": "creditId",
          "type": "uint256"
        }
      ],
      "name": "getOwner",
      "outputs": [
        {
          "internalType": "address",
          "name": "",
          "type": "address"
        }
      ],
      "stateMutability": "view",
      "type": "function"
    },
    {
      "inputs": [
        {
          "internalType": "uint256",
          "name": "creditId",
          "type": "uint256"
        }
      ],
      "name": "getPrice",
      "outputs": [
        {
          "internalType": "uint256",
          "name": "",
          "type": "uint256"
        }
      ],
      "stateMutability": "view",
      "type": "function"
    },
    {
      "inputs": [
        {
          "internalType": "uint256",
          "name": "creditId",
          "type": "uint256"
        }
      ],
      "name": "isExpired",
      "outputs": [
        {
          "internalType": "bool",
          "name": "",
          "type": "bool"
        }
      ],
      "stateMutability": "view",
      "type": "function"
    },
    {
      "inputs": [
        {
          "internalType": "uint256",
          "name": "creditId",
          "type": "uint256"
        }
      ],
      "name": "removeFromSale",
      "outputs": [],
      "stateMutability": "nonpayable",
      "type": "function"
    },
    {
      "inputs": [
        {
          "internalType": "uint256",
          "name": "creditId",
          "type": "uint256"
        },
        {
          "internalType": "uint256",
          "name": "price",
          "type": "uint256"
        }
      ],
      "name": "sellCredit",
      "outputs": [],
      "stateMutability": "nonpayable",
      "type": "function"
    }
  ],
  "bytecode": "0x6080604052348015600f57600080fd5b50610dd18061001f6000396000f3fe60806040526004361061009c5760003560e01c8063c41a360a11610064578063c41a360a1461017a578063ca850692146101b7578063d48e638a146101e0578063d9548e531461021d578063e75722301461025a578063f5383175146102975761009c565b8063036a1c22146100a15780631361a3b6146100e35780633047456f1461010c5780637211dde414610135578063a33fd53b14610151575b600080fd5b3480156100ad57600080fd5b506100c860048036038101906100c39190610ac4565b6102c2565b6040516100da96959493929190610b5c565b60405180910390f35b3480156100ef57600080fd5b5061010a60048036038101906101059190610ac4565b610358565b005b34801561011857600080fd5b50610133600480360381019061012e9190610bbd565b610418565b005b61014f600480360381019061014a9190610ac4565b61058c565b005b34801561015d57600080fd5b5061017860048036038101906101739190610ac4565b610797565b005b34801561018657600080fd5b506101a1600480360381019061019c9190610ac4565b610862565b6040516101ae9190610bfd565b60405180910390f35b3480156101c357600080fd5b506101de60048036038101906101d99190610bbd565b6108a1565b005b3480156101ec57600080fd5b5061020760048036038101906102029190610ac4565b6109f5565b6040516102149190610bfd565b60405180910390f35b34801561022957600080fd5b50610244600480360381019061023f9190610ac4565b610a34565b6040516102519190610c18565b60405180910390f35b34801561026657600080fd5b50610281600480360381019061027c9190610ac4565b610a60565b60405161028e9190610c33565b60405180910390f35b3480156102a357600080fd5b506102ac610a7f565b6040516102b99190610c33565b60405180910390f35b60006020528060005260406000206000915090508060000154908060010160009054906101000a900473ffffffffffffffffffffffffffffffffffffffff16908060020160009054906101000a900473ffffffffffffffffffffffffffffffffffffffff16908060020160149054906101000a900460ff16908060030154908060040160009054906101000a900460ff16905086565b600080600083815260200190815260200160002090508060020160009054906101000a900473ffffffffffffffffffffffffffffffffffffffff1673ffffffffffffffffffffffffffffffffffffffff163373ffffffffffffffffffffffffffffffffffffffff16146103f7576040517f8a715f9900000000000000000000000000000000000000000000000000000000815260040160405180910390fd5b60008160040160006101000a81548160ff0219169083151502179055505050565b6040518060c001604052808381526020013373ffffffffffffffffffffffffffffffffffffffff1681526020013373ffffffffffffffffffffffffffffffffffffffff1681526020016000151581526020018281526020016001151581525060008060015481526020019081526020016000206000820151816000015560208201518160010160006101000a81548173ffffffffffffffffffffffffffffffffffffffff021916908373ffffffffffffffffffffffffffffffffffffffff16021790555060408201518160020160006101000a81548173ffffffffffffffffffffffffffffffffffffffff021916908373ffffffffffffffffffffffffffffffffffffffff16021790555060608201518160020160146101000a81548160ff0219169083151502179055506080820151816003015560a08201518160040160006101000a81548160ff0219169083151502179055509050506001600081548092919061058390610c7d565b91905055505050565b60008060008381526020019081526020016000209050600015158160040160009054906101000a900460ff161515036105f1576040517f648b466f00000000000000000000000000000000000000000000000000000000815260040160405180910390fd5b8060030154341461062e576040517fa2c2d5c600000000000000000000000000000000000000000000000000000000815260040160405180910390fd5b60006064600a3461063f9190610cc5565b6106499190610d36565b9050600081346106599190610d67565b90508260010160009054906101000a900473ffffffffffffffffffffffffffffffffffffffff1673ffffffffffffffffffffffffffffffffffffffff166108fc839081150290604051600060405180830381858888f193505050501580156106c5573d6000803e3d6000fd5b508260020160009054906101000a900473ffffffffffffffffffffffffffffffffffffffff1673ffffffffffffffffffffffffffffffffffffffff166108fc829081150290604051600060405180830381858888f19350505050158015610730573d6000803e3d6000fd5b50338360020160006101000a81548173ffffffffffffffffffffffffffffffffffffffff021916908373ffffffffffffffffffffffffffffffffffffffff16021790555060008360040160006101000a81548160ff02191690831515021790555050505050565b60008082815260200190815260200160002060010160009054906101000a900473ffffffffffffffffffffffffffffffffffffffff1673ffffffffffffffffffffffffffffffffffffffff163373ffffffffffffffffffffffffffffffffffffffff1614610831576040517ffeeecc3400000000000000000000000000000000000000000000000000000000815260040160405180910390fd5b600160008083815260200190815260200160002060020160146101000a81548160ff02191690831515021790555050565b600080600083815260200190815260200160002060020160009054906101000a900473ffffffffffffffffffffffffffffffffffffffff169050919050565b60008060008481526020019081526020016000209050600073ffffffffffffffffffffffffffffffffffffffff168160020160009054906101000a900473ffffffffffffffffffffffffffffffffffffffff1673ffffffffffffffffffffffffffffffffffffffff1603610941576040517f854f4ad100000000000000000000000000000000000000000000000000000000815260040160405180910390fd5b8060020160009054906101000a900473ffffffffffffffffffffffffffffffffffffffff1673ffffffffffffffffffffffffffffffffffffffff163373ffffffffffffffffffffffffffffffffffffffff16146109ca576040517f4400708d00000000000000000000000000000000000000000000000000000000815260040160405180910390fd5b81816003018190555060018160040160006101000a81548160ff021916908315150217905550505050565b600080600083815260200190815260200160002060010160009054906101000a900473ffffffffffffffffffffffffffffffffffffffff169050919050565b600080600083815260200190815260200160002060020160149054906101000a900460ff169050919050565b6000806000838152602001908152602001600020600301549050919050565b6000600154905090565b600080fd5b6000819050919050565b610aa181610a8e565b8114610aac57600080fd5b50565b600081359050610abe81610a98565b92915050565b600060208284031215610ada57610ad9610a89565b5b6000610ae884828501610aaf565b91505092915050565b610afa81610a8e565b82525050565b600073ffffffffffffffffffffffffffffffffffffffff82169050919050565b6000610b2b82610b00565b9050919050565b610b3b81610b20565b82525050565b60008115159050919050565b610b5681610b41565b82525050565b600060c082019050610b716000830189610af1565b610b7e6020830188610b32565b610b8b6040830187610b32565b610b986060830186610b4d565b610ba56080830185610af1565b610bb260a0830184610b4d565b979650505050505050565b60008060408385031215610bd457610bd3610a89565b5b6000610be285828601610aaf565b9250506020610bf385828601610aaf565b9150509250929050565b6000602082019050610c126000830184610b32565b92915050565b6000602082019050610c2d6000830184610b4d565b92915050565b6000602082019050610c486000830184610af1565b92915050565b7f4e487b7100000000000000000000000000000000000000000000000000000000600052601160045260246000fd5b6000610c8882610a8e565b91507fffffffffffffffffffffffffffffffffffffffffffffffffffffffffffffffff8203610cba57610cb9610c4e565b5b600182019050919050565b6000610cd082610a8e565b9150610cdb83610a8e565b9250828202610ce981610a8e565b91508282048414831517610d0057610cff610c4e565b5b5092915050565b7f4e487b7100000000000000000000000000000000000000000000000000000000600052601260045260246000fd5b6000610d4182610a8e565b9150610d4c83610a8e565b925082610d5c57610d5b610d07565b5b828204905092915050565b6000610d7282610a8e565b9150610d7d83610a8e565b9250828203905081811115610d9557610d94610c4e565b5b9291505056fea264697066735822122099cf6da7e4753b4cd1c44ad7a2d26bd4ea978bfb0006fe74b43486da0457ea9d64736f6c634300081b0033",
  "linkReferences": {},
  "deployedLinkReferences": {}
}